{
  "transactions": [
    {
      "hash": "0x1e2e554fab941694476edc92417a46d53ce6e9b3adc6a492cd386dd18c046d01",
      "transactionType": "CALL",
      "contractName": "LinkToken",
      "contractAddress": "0x779877a7b0d9e8603169ddbd7836e478b4624789",
      "function": "transferAndCall(address,uint256,bytes)",
      "arguments": [
        "0x9DdfaCa8183c41ad55329BdeeD9F6A8d53168B1B",
        "3000000000000000000",
        "0xfc150ce5dc432010d1398276e8877f57f9b0cf63de7090adb30b6cc7ada3f59a"
      ],
      "transaction": {
        "from": "0xacce6b90c08daa3fa9fbea88c27c248bb4308c47",
        "to": "0x779877a7b0d9e8603169ddbd7836e478b4624789",
        "gas": "0x1c1ff",
        "value": "0x0",
        "input": "0x4000aea00000000000000000000000009ddfaca8183c41ad55329bdeed9f6a8d53168b1b00000000000000000000000000000000000000000000000029a2241af62c000000000000000000000000000000000000000000000000000000000000000000600000000000000000000000000000000000000000000000000000000000000020fc150ce5dc432010d1398276e8877f57f9b0cf63de7090adb30b6cc7ada3f59a",
        "nonce": "0x6",
        "chainId": "0xaa36a7"
      },
      "additionalContracts": [],
      "isFixedGasLimit": false
    }
  ],
  "receipts": [
    {
      "status": "0x1",
      "cumulativeGasUsed": "0x107de96",
      "logs": [
        {
          "address": "0x779877a7b0d9e8603169ddbd7836e478b4624789",
          "topics": [
            "0xddf252ad1be2c89b69c2b068fc378daa952ba7f163c4a11628f55a4df523b3ef",
            "0x000000000000000000000000acce6b90c08daa3fa9fbea88c27c248bb4308c47",
            "0x0000000000000000000000009ddfaca8183c41ad55329bdeed9f6a8d53168b1b"
          ],
          "data": "0x00000000000000000000000000000000000000000000000029a2241af62c0000",
          "blockHash": "0x1bdcde9d4cf908a7ae0bd52ff1bddfc3e818ad1521db502b01e6379049a4a2f0",
          "blockNumber": "0x75eb1d",
          "transactionHash": "0x1e2e554fab941694476edc92417a46d53ce6e9b3adc6a492cd386dd18c046d01",
          "transactionIndex": "0xeb",
          "logIndex": "0x165",
          "removed": false
        },
        {
          "address": "0x779877a7b0d9e8603169ddbd7836e478b4624789",
          "topics": [
            "0xe19260aff97b920c7df27010903aeb9c8d2be5d310a2c67824cf3f15396e4c16",
            "0x000000000000000000000000acce6b90c08daa3fa9fbea88c27c248bb4308c47",
            "0x0000000000000000000000009ddfaca8183c41ad55329bdeed9f6a8d53168b1b"
          ],
          "data": "0x00000000000000000000000000000000000000000000000029a2241af62c000000000000000000000000000000000000000000000000000000000000000000400000000000000000000000000000000000000000000000000000000000000020fc150ce5dc432010d1398276e8877f57f9b0cf63de7090adb30b6cc7ada3f59a",
          "blockHash": "0x1bdcde9d4cf908a7ae0bd52ff1bddfc3e818ad1521db502b01e6379049a4a2f0",
          "blockNumber": "0x75eb1d",
          "transactionHash": "0x1e2e554fab941694476edc92417a46d53ce6e9b3adc6a492cd386dd18c046d01",
          "transactionIndex": "0xeb",
          "logIndex": "0x166",
          "removed": false
        },
        {
          "address": "0x9ddfaca8183c41ad55329bdeed9f6a8d53168b1b",
          "topics": [
            "0x1ced9348ff549fceab2ac57cd3a9de38edaaab274b725ee82c23e8fc8c4eec7a",
            "0xfc150ce5dc432010d1398276e8877f57f9b0cf63de7090adb30b6cc7ada3f59a"
          ],
          "data": "0x000000000000000000000000000000000000000000000000000000000000000000000000000000000000000000000000000000000000000029a2241af62c0000",
          "blockHash": "0x1bdcde9d4cf908a7ae0bd52ff1bddfc3e818ad1521db502b01e6379049a4a2f0",
          "blockNumber": "0x75eb1d",
          "transactionHash": "0x1e2e554fab941694476edc92417a46d53ce6e9b3adc6a492cd386dd18c046d01",
          "transactionIndex": "0xeb",
          "logIndex": "0x167",
          "removed": false
        }
      ],
      "logsBloom": "0x00000004000000000000000000000000000000000020000000000000020000000000000000000040000000000000000000000000000000000000000000000000000010000000000000010008000000000000000000000000000020000022000008000000000000000000000000000000000000000000000000000010000040000000000000000000004000010000800000000020000000000000000000000000000000000000000000000000010000000000000000000000000004000000000000000002000000000000000000000000000000000000000100000000000000000010000000000000800000000000000000000000000000000000000000000002",
      "type": "0x2",
      "transactionHash": "0x1e2e554fab941694476edc92417a46d53ce6e9b3adc6a492cd386dd18c046d01",
      "transactionIndex": "0xeb",
      "blockHash": "0x1bdcde9d4cf908a7ae0bd52ff1bddfc3e818ad1521db502b01e6379049a4a2f0",
      "blockNumber": "0x75eb1d",
      "gasUsed": "0x133b1",
      "effectiveGasPrice": "0x138831af6",
      "from": "0xacce6b90c08daa3fa9fbea88c27c248bb4308c47",
      "to": "0x779877a7b0d9e8603169ddbd7836e478b4624789",
      "contractAddress": null
    }
  ],
  "libraries": [],
  "pending": [],
  "returns": {},
  "timestamp": 1739808149,
  "chain": 11155111,
  "commit": "8ea8e25"
}